:020000040800F2
:1000000078060020290200083102000833020008A7
:10001000350200083702000839020008000000001D
:100020000000000000000000000000003B0200088B
:100030003D020008000000003F0200083D060008E5
:10004000430200084302000843020008430200087C
:100050004302000843020008E502000843020008CA
:10006000430200084302000843020008430200085C
:10007000430200084302000843020008430200084C
:10008000430200084302000843020008430200083C
:10009000430200084302000843020008430200082C
:1000A000430200084302000843020008430200081C
:1000B000430200084302000843020008430200080C
:1000C00043020008430200084302000843020008FC
:1000D00043020008430200084302000843020008EC
:1000E00043020008430200084302000843020008DC
:1000F00043020008430200084302000843020008CC
:1001000043020008430200084302000843020008BB
:1001100043020008430200084302000843020008AB
:10012000430200084302000843020008430200089B
:10013000430200084302000843020008430200088B
:10014000430200084302000843020008430200087B
:10015000430200084302000843020008430200086B
:10016000430200084302000843020008430200085B
:10017000430200084302000843020008430200084B
:10018000430200084302000800F002F800F03CF8C7
:100190000AA090E8000C82448344AAF10107DA45E2
:1001A00001D100F031F8AFF2090EBAE80F0013F0F8
:1001B000010F18BFFB1A43F0010318472406000083
:1001C00044060000103A24BF78C878C1FAD8520714
:1001D00024BF30C830C144BF04680C6070470000C1
:1001E0000023002400250026103A28BF78C1FBD840
:1001F000520728BF30C148BF0B6070471FB500F0E1
:10020000E9FA1FBD10B510BD00F031F81146FFF737
:10021000F5FF00F04FFA00F04FF803B4FFF7F2FFDC
:1002200003BC00F057F80000094880470948004720
:10023000FEE7FEE7FEE7FEE7FEE7FEE7FEE7FEE796
:10024000FEE7FEE704480549054A064B70470000F3
:100250004D0600088901000878000020780600207B
:10026000780200207802002070477047704775467A
:1002700000F02CF8AE4605006946534620F0070012
:10028000854618B020B5FFF7DDFFBDE820404FF0F0
:1002900000064FF000074FF000084FF0000B21F070
:1002A0000701AC46ACE8C009ACE8C009ACE8C0093D
:1002B000ACE8C0098D46704710B50446AFF3008026
:1002C0002046BDE81040FFF7A8BF00000048704777
:1002D0001800002001491820ABBEFEE726000200EE
:1002E0007047000010B5012000F012F838B14FF44B
:1002F0000051034800F0ACF8012000F003F810BDF5
:10030000000C02400149086070470000143C0140A5
:1003100001460020034A12680A400AB1012000E0A9
:1003200000207047143C0140002123498279002AB3
:100330003AD00A46126803689A430B461A600A1DAF
:10034000126803689A430B1D1A60027911440A6807
:1003500003681A430A60184A0832126803689A430D
:10036000154B08331A601A1D126803689A43124B22
:100370000C331A604279102A0ED11A1F12680368D2
:100380001A430D4B08331A601A1D126803681A438A
:10039000094B0C331A600DE00749427911440A6891
:1003A00003681A430A6005E0027911440A68036889
:1003B0009A430A6070470000003C0140F0B50A46CD
:1003C00000210023002400BF3DE0012505FA01F3D0
:1003D000156805EA03049C4234D105684F000326E2
:1003E000BE40B543056015794E00B54006683543FB
:1003F00005601579012D02D01579022D16D1856879
:100400004F000326BE40B543856055794E00B54088
:10041000866835438560456801268E40B543456052
:10042000456896798E40B6B235434560C5684F0041
:100430000326BE40B543C560D5794E00B540C668B9
:100440003543C560491C1029BFD3F0BD01837047F7
:1004500042694A404261704770B5002100230F2273
:10046000C4781CB3174C246804F4E064C4F5E06459
:10047000C4F30721C1F10404E3B20A4144789C406B
:10048000E1B28478144021430C07210E0E4C05780C
:100490006155047804F01F050124AC4005786D1106
:1004A000AD0005F1E025C5F8004109E0047804F04D
:1004B0001F050124AC40054D0678761145F826400D
:1004C00070BD00000CED00E000E400E080E100E021
:1004D00029B1064A12680243044B1A6004E0034A39
:1004E00012688243014B1A607047000030380240A6
:1004F00029B1064A12680243044B1A6004E0034A19
:1005000012688243014B1A60704700004438024071
:1005100030B500228B071C0F0F2303FA04F20B4B9C
:100520008C1053F824309343084C8D1044F8253038
:1005300023468C1053F824308C07240F00FA04F45F
:100540002343024C8D1044F8253030BD083801405B
:100550000CB50020019000903448006840F48030D1
:100560003249086000BF3148006800F40030009054
:100570000198401C0190009818B90198B0F5A04F5F
:10058000F1D12A48006800F4003010B10120009039
:1005900001E0002000900098012846D12348403017
:1005A000006840F0805021494031086020480068D0
:1005B00040F440401E4908601C48083000681B4950
:1005C000083108600846006840F4004008600846AA
:1005D000006840F4A05008601648091F0860081F12
:1005E000006840F08070091F086000BF0F48006875
:1005F00000F000700028F9D040F205700E49086044
:100600000A480830006820F00300084908310860F3
:100610000846006840F00200086000BF0348083048
:10062000006800F00C000828F8D10CBD003802402A
:100630000070004019544007003C02400248006826
:10064000401C0149086070470000002010B51548A3
:10065000006840F47000134908601348006840F0D7
:1006600001001149086000200F49083108600E4858
:1006700000680E4908400C4908600D48091D0860D3
:10068000081F006820F48020091F08600020064928
:100690000C310860FFF75CFF4FF0006001498039C2
:1006A000086010BD88ED00E000380240FFFFF6FE54
:1006B0001030002486B000F059F801210820FFF71F
:1006C00007FF01210846FFF703FF01218803FFF719
:1006D0000FFF4FF40050049001208DF8140000200B
:1006E0008DF8160002208DF8150000208DF81700F7
:1006F00004A91C48FFF762FE0120049000208DF839
:1007000014008DF8160002208DF815008DF81700E2
:1007100004A91548FFF752FE00210846FFF7F8FE2E
:100720000120019000208DF8080008208DF80900B4
:1007300001208DF80A0001A8FFF7F6FD06208DF8CC
:100740000C0001208DF80D008DF80E008DF80F00C3
:1007500003A8FFF781FE4FF400510248FFF776FE31
:1007600000BFFEE7000C02400000024030B5164812
:1007700000684FF47A72B0FBF2F1481EB0F1807F4E
:1007800001D301201BE0481E4FF0E02250615017BA
:100790000F22002804DB13071C0E0C4B1C5406E030
:1007A00013071D0E0A4B00F00F04241F1D5500BF38
:1007B00000204FF0E022906107201061002008B176
:1007C00000BFFEE730BD00000400002000E400E0B0
:1007D00018ED00E04FF04070E1EE100A70470000A5
:1007E000000800080000002018000000C4010008F4
:1007F000180800081800002060060000E00100084A
:1008000000000000007A030A000000000000000061
:080810000102030406070809B8
:0400000508000229C4
:00000001FF
